:020000040002F8
:1070000070660020DD730200E5730200E773020082
:10701000E9730200EB730200ED7302000000000050
:10702000000000000000000000000000EF730200FC
:10703000F173020000000000F3730200F573020018
:1070400069760200F7730200A9790200F773020063
:10705000F7730200F7730200A9750200F7730200CC
:10706000F7730200F7730200F7730200F773020070
:10707000F7730200F7730200F7730200F773020060
:10708000F7730200BD760200F7730200F773020087
:10709000F7730200F773020061770200F7730200D2
:1070A000F7730200F7730200F7730200F773020030
:1070B000F7730200F77302000000000000000000F8
:1070C000F7730200F7730200F7730200F773020010
:1070D000F7730200F7730200F7730200F773020000
:1070E000F7730200F7730200F7730200000000005C
:1070F00000000000F773020000000000F7730200B8
:10710000000000000000000000000000000000007F
:10711000000000000000000000000000000000006F
:10712000000000000000000000000000000000005F
:10713000000000000000000000000000000000004F
:10714000000000000000000000000000000000003F
:10715000000000000000000000000000000000002F
:10716000000000000000000000000000000000001F
:10717000000000000000000000000000000000000F
:1071800000000000000000000000000000000000FF
:1071900000000000000000000000000000000000EF
:1071A00000000000000000000000000000000000DF
:1071B00000000000000000000000000000000000CF
:1071C00000000000000000000000000000000000BF
:1071D00000000000000000000000000000000000AF
:1071E000000000000000000000000000000000009F
:1071F000000000000000000000000000000000008F
:10720000DFF80CD000F092F90048004789E4020052
:107210007066002000B583B002900091019244F2A4
:10722000010071466A4600F0B5FF03B000BD0000E2
:1072300030B450E8012F93B2C48923448489A34217
:1072400028BF1B1B0489A34202BFBFF32F8F00205E
:1072500007E0C3EA020340E80134002CE9D14FF013
:1072600001000A6030BC704750E8012FC2EA0242B8
:1072700040E801210029F7D1704730B450E8022FCF
:107280001FFAA2F3C488A34202BFBFF32F8F0020CE
:107290000DE0C48923448489A34228BF1B1BC2EA92
:1072A000034340E80234002CE8D14FF001000A60AB
:1072B00030BC704750E8022FC2EA224240E8022167
:1072C0000029F7D17047034653E8022FD988B2EB63
:1072D000324F4FF0000017BF92B241EA014142EA3B
:1072E000014104E05A68B2EB324F08BF012043E885
:1072F0000212002AE8D1704730B4044654E8000F67
:107300000D4644E80053002BF8D1156030BC70479F
:1073100030B4044654E8000F40EA010544E8005345
:10732000002BF7D1156030BC704730B4044654E8E8
:10733000000F00EA010544E80053002BF7D1156067
:1073400030BC704730B4044654E8000F80EA0105B1
:1073500044E80053002BF7D1156030BC704730B4BF
:10736000044654E8000F00EB010544E80053002BED
:10737000F7D1156030BC704730B4044654E8000FB4
:10738000A0EB010544E80053002BF7D1156030BC99
:10739000704770B404464FF0000054E8006F0D6869
:1073A000AE4207BF44E80023012044E800630E60BA
:1073B000002B1CBF0020F0E770BC704730B40446BF
:1073C00054E8000F88422CBF451A054644E8005394
:1073D000002BF5D1156030BC70470000064880478F
:1073E00006480047FEE7FEE7FEE7FEE7FEE7FEE7AA
:1073F000FEE7FEE7FEE7FEE7797702000172020092
:107400002DE9F05F0546002092469B4688460646D9
:10741000814640241BE0284641464746224600F06C
:1074200074F853465A46C01A914110D31146184673
:10743000224600F016F82D1A67EB01084F46224647
:107440000120002100F00DF817EB00094E41201E2D
:10745000A4F10104DFDC484631462A464346BDE834
:10746000F09F202A04DB203A00FA02F10020704746
:107470009140C2F1200320FA03F319439040704772
:1074800000487047348C030040EA01039B0703D097
:1074900009E008C9121F08C0042AFAD203E011F853
:1074A000013B00F8013B521EF9D27047D2B201E015
:1074B00000F8012B491EFBD270470022F6E710B5F9
:1074C00013460A4604461946FFF7F0FF204610BD52
:1074D000421C10F8011B0029FBD1801A704730B5FF
:1074E00004460020034600E05B1C934203D2E05CAC
:1074F000CD5C401BF8D030BD034611F8012B00F8DD
:10750000012B002AF9D118467047202A04DB203AC3
:1075100021FA02F00021704721FA02F3D040C2F1B3
:10752000200291400843194670470000064C074D61
:1075300006E0E06840F0010394E807009847103443
:10754000AC42F6D3FFF760FEB0A80300D0A803005A
:1075500070B58C1810F8015B15F0070301D110F815
:10756000013B2A1106D110F8012B03E010F8016B42
:1075700001F8016B5B1EF9D12B0705D40023521EC5
:107580000DD401F8013BFAE710F8013BCB1A921C2D
:1075900003E013F8015B01F8015B521EF9D5A1422B
:1075A000D8D3002070BD00002DE9FC470026002044
:1075B000009001904FF480770125002410E03846B8
:1075C00008F016FC40B100BF25480068284018B1FB
:1075D000384608F0FFFB2E436D00381D87B2641C4F
:1075E000082CECD34FF4BE7008F002FC50B14FF4FD
:1075F000BE7008F0EFFB46F000466A46022100200C
:1076000008F028FBF0B210B3012500241DE005EAC4
:107610000600C0B100BF134850F82400C0F3052095
:10762000814600BF0F4850F82400C0F30140824655
:10763000204603F00FFC8046B8F1000F02D05146FF
:107640004846C04700BF6D00641C082CDFD306F01D
:10765000004010B168460DF0A5FCBDE8FC870000B5
:10766000046300401065004010B54FF4807007F0CF
:10767000C0FC80B14FF4807007F0C4FC012007F01B
:10768000CBFC0D48407930B901200B4948710846C0
:107690000168002088474FF4827007F0AAFC50B1BF
:1076A0004FF4827007F0AEFC022007F0B5FC0248F0
:1076B00001680120884710BDB42D002010B5034A91
:1076C0001068034A1168884710BD0000242E00206E
:1076D000202E002010B500F06FF910BD2DE9F04705
:1076E000074688461646C24607EB47011B4800EB93
:1076F000C109D9F8140020B1012811D0022826D1DF
:107700001EE0484600F090F90546B54201D200243B
:1077100005E0344632465146484600F0CCF918E0C0
:10772000484600F081F90546B54201D2284600E0FE
:107730003046044622465146484600F0BCF908E06F
:1077400032465146484600F07DF9044601E00024E7
:1077500000BF00BF2046BDE8F0870000984300202E
:1077600010B509F09FFB10BD014802490860704741
:107770000090D003D82E002010B507F0F3F840B1E8
:107780000020794908604FF08041C1F81001774925
:10779000086007F011F9002855D075480068754950
:1077A00008607348001D0068091D086070480830B3
:1077B0000068091D08606E480C300068091D0860EB
:1077C0006B4810300068091D086069481430006873
:1077D000091D086066481830006866492031086055
:1077E00063481C300068091D08606148203000684B
:1077F000091D08605E4824300068091D08605C4867
:1078000028300068091D086059482C300068091D9F
:107810000860574830300068564940310860544885
:1078200034300068091D0860514838300068091D6F
:1078300008604F483C300068091D08604C484030E3
:107840000068091D086007F0E1F810B14A484B498B
:10785000086007F009F810B1FB204949086007F0FB
:107860001FF838B1474801784748006861F30300C2
:107870004549086007F030F818B14FF400704349EB
:10788000086007F045F840B14148006800F0010089
:1078900018B16FF001003E4908603E48006840F4AE
:1078A00070003C49086000BF00BF00BFBFF34F8FAE
:1078B00000BF00BF00BF00BF00BF00BFBFF36F8F9E
:1078C00000BF00BF00BF3448006800F0004030B97E
:1078D0003148001D006800F00040002840D0012021
:1078E0002E49086000BF2E4800680028FBD01220F7
:1078F0002949086000BF2A4800680028FBD01221EF
:107900002548001D016000BF254800680028FBD005
:1079100000202249086000BF214800680028FBD0F1
:1079200000BF00BF00BF00BF00BFBFF34F8F00BF4D
:1079300000BF00BF17487C38006800F4E0601949B8
:107940000843001D13497C39086000BF00BF00BF19
:10795000BFF34F8F00BF00BF00BF00BF00BFFDE7F8
:10796000FFF702FF10BD00000C0100403805004089
:107970000404001020C50040488103008C560040DC
:1079800018F5004058020010E40E004040960240F6
:107990000004004088ED00E00012001004E5014002
:1079A00000E401400000FA0510B50249086880476C
:1079B00010BD0000BC2D002010B5124C022020612B
:1079C000606111A0A0611349E1614FF4007121626F
:1079D0000021A1626162E1620BA0A0640E49E16432
:1079E000102121650021A1656165E1650BA1E01D04
:1079F000FFF782FD0AA12046FFF77EFD2020A0713F
:107A000010BD0000804300205465726D696E616C8A
:107A100000000000F8430020F845002052545400B4
:107A2000534547474552000010B501460A69CB68E7
:107A30009A4204D88C68641EE41AA01801E0D41A93
:107A4000601E10BD2DE9F0470446894617464FF0E9
:107A5000000AE56800BFD4F81080A84503D9A8EB58
:107A60000500461E04E0A5EB0800401CA1680E1AA4
:107A7000A068401BB04201D9304601E0A068401B1D
:107A80000646BE4201D2304600E0384606466168EE
:107A9000481932464946FFF7F7FCB244B144BF1BD0
:107AA0003544A068A84200D10025E560002FD2D15E
:107AB0005046BDE8F0872DE9F04704468946154653
:107AC000E668A068871BAF4208D9616888192A4612
:107AD0004946FFF7D9FC7019E06010E0B8466168CC
:107AE000881942464946FFF7CFFCA5EB070809EB8A
:107AF000070142466068FFF7C7FCC4F80C80BDE888
:107B0000F08702E008C8121F08C1002AFAD17047A6
:107B10007047002001E001C1121F002AFBD170470D
:107B20000146202908DA012088400A4A104008B19D
:107B3000012070470020FCE7402909DAA1F120006C
:107B4000012202FA00F008B10120F2E70020F0E77C
:107B50000120EEE7FC06FFBD00BFEFF310810846F1
:107B600072B67047F8B505460E46D6B9694628463E
:107B70000BF0FEFE044643F202018C420AD000BF25
:107B8000274637B100BF3B4AB1213846FFF742FBD9
:107B900000BF00BF9DF80000C0F3400000B1F8BD79
:107BA00000BF002128460BF0F5FE0446002C5ED0F5
:107BB000112C5CD00D2C21D12F49304A891AC908CB
:107BC000022242EA01402A462D4908F019FC1321FD
:107BD000284676DF0446002C49D0204609F072FA88
:107BE00007462549254A891AC908022242EA014066
:107BF0002B463A4623A108F00FFC38E00B2C0BD1A2
:107C00001D491E4A891AC908022242EA01402A4631
:107C10002A4908F0F5FB2AE043F2020084420BD126
:107C20001549164A891AC908022242EA01402A4621
:107C3000234908F0E5FB1AE0204609F043FA07461D
:107C40000D490E4A891AC908012242EA01402B4611
:107C50003A461CA108F0E0FB00BF274637B100BF41
:107C6000044AE0213846FFF7D5FA00BF00BF00BF45
:107C700095E70000B099030018A90300E0A80300ED
:107C80006895030073645F626C655F6761705F6431
:107C90006973636F6E6E65637428292072657475ED
:107CA000726E6564202573206F6E20636F6E6E5F49
:107CB00068616E646C652025642E000028960300C0
:107CC000DC950300417373657274696E672E2070D2
:107CD0006D5F636F6E6E5F736563757265282920D3
:107CE00072657475726E6564202573206F6E2063F3
:107CF0006F6E6E5F68616E646C652025642E000097
:107D000070B505460C4605B10CB9002070BD287849
:107D100040082178B0EB510F01D00020F6E7062291
:107D2000611C681CFFF7DBFB08B90120EEE70020AF
:107D3000ECE7014601F0030008B90120704700207C
:107D4000FCE7024650680068401E084008B9012060
:107D500070470020FCE70246002104E0505C08B1B7
:107D600001207047491C0629F8D30020F9E710B517
:107D70000346D868884206D88818401E1C69A0426D
:107D800001D8012010BD0020FCE7000010B504461A
:107D90006CB10848C068A04209D806480069A042F2
:107DA00005D3204606F029F808B1012010BD0020B7
:107DB000FCE70000DC2E002070B504460D4604F2FE
:107DC0002740FFF7C8FF0646012D06D0022D0DD033
:107DD000032D11D0042D19D113E0A07928B194F806
:107DE000240010B90EB1012070BD00BFE07910B1C0
:107DF0000EB10220F8E700BF207A08B10320F3E7B4
:107E000000BF607A08B10420EEE700BF0020EBE776
:107E10000146481C052290FBF2F302FB1300C0B29E
:107E20007047014691F82420012A01D1EE2000E09C
:107E30001F20704710B501220221002002F058FCDB
:107E4000044600BF1CB1072C01D0204610BD00BF66
:107E500007220221012002F04BFC044600BF1CB1A6
:107E6000072C01D02046F1E700BF0A220021084676
:107E700002F03EFC044600BF1CB1072C01D0204696
:107E8000E4E700BF0020E1E710B504462C212046BE
:107E9000FFF713FB0120207140202061002060616A
:107EA00010BD000030B5ABB0AC216846FFF705FB54
:107EB00002208DF8000000208DF8020006208DF8C9
:107EC00003000121ADF84C101349149101218DF8E4
:107ED00079108DF87C1040212291002123910F48C8
:107EE000299001208DF8780069460D4801F035F899
:107EF000044600BF25463DB100BF0AA240F2A141A1
:107F00002846FFF787F900BF00BF0121044801F0B0
:107F100021F82BB030BD00004C2C00205D1C03006C
:107F2000102F00202E2E5C2E2E5C2E2E5C6D616993
:107F30006E2E630070B505462E492F4A891AC9086E
:107F4000032242EA01402DA108F050FA012D02D18E
:107F500003F056FB4DE04FF6FF7204212C48FFF76B
:107F6000A5FA02202B49086029480BF021FB29487B
:107F7000016827480DF004F8044600BF26463EB1CC
:107F800000BF25A240F20F513046FFF743F900BF72
:107F900000BF204801681E480BF012FD0446062C65
:107FA0000BD000BF26463EB100BF1BA240F21651C7
:107FB0003046FFF72FF900BF00BF0E490E4A891A5D
:107FC000C908032242EA014017A108F00FFA032171
:107FD0001A4801F0B7F8044600BF26463EB100BF7C
:107FE0000DA240F21A513046FFF714F900BF00BF4E
:107FF00000BF70BD90A90300E0A80300616476652E
:1080000072746973696E675F7374617274310000B2
:10801000182C00201C2C00202E2E5C2E2E5C2E2EC8
:108020005C6D61696E2E630061647665727469735C
:10803000696E675F696E697432000000102F00205E
:1080400070B58CB004460D461646002005E0C0F120
:108050000F01615C0DF80010401C1028F7D30D21B2
:1080600004A8FFF72AFA002005E02A5CC0F10F03FC
:1080700004A9CA54401C0328F7D3684646DF0020F1
:1080800005E0C0F10F0208A9895C3154401C0328A7
:10809000F7D30CB070BD10B50446022002F044F9CD
:1080A00010BD000010B5044602480178204601F0DA
:1080B000F9F910BD842D002010B5002407E0074910
:1080C000096811F83400012109F0D0F8641C044853
:1080D00000788442F3D3002010BD0000C82D00209A
:1080E000CC2D00202DE9F84306460D4617460A2FF1
:1080F00002D20720BDE8F88309F000FA38B909F088
:1081000091F9044600BF204600B1F3E700BF1848CC
:108110000660184805701848076020211748FFF7C7
:10812000CCF90021164A1160516015E006EBC50834
:1081300014480068009098F802008DF8010098F843
:108140000000114A694609F0E7F8044600BF2046DE
:1081500000B1CFE700BF00BF281EA5F10101CDB2DD
:10816000E4D10A4A00210A4800F082FAC2E700007E
:10817000C82D0020CC2D0020D02D0020483B002011
:10818000D82D00206C880300A1D00200CDB60200DB
:10819000688803002DE9FE4307460E46144672B672
:1081A00000BF08F02DFA00BF00BF07F01DFF002838
:1081B000FBD100BF00BF012F0CD06FF480503844BA
:1081C00098B1B0F5405F2CD06FF4405108440028BE
:1081D00047D115E03149324A891AC908012242EAD9
:1081E000014030A108F002F947E02C492C4A891AD5
:1081F000C908012242EA014032A108F0F7F83CE048
:1082000025462649DFF898C0A1EB0C01C9084FF0BC
:10821000010C4CEA014034A1D5E9003208F0FCF829
:108220002BE02546A86808F04DFF8046D5E90010F0
:108230008DE8430019491A4BC91AC908012343EABA
:10824000014043462FA1AA6808F020F91349144AB7
:10825000891AC908012242EA014034A108F0C6F88F
:108260000BE00E490E4A891AC908012242EA014070
:10827000324633A108F0C4F800BF00BF00BF364843
:10828000006800F0010000B100BE00BF2246314688
:10829000384600F063F8BDE8FE83000090A90300B3
:1082A000E0A80300534F46544445564943453A20FD
:1082B000415353455254494F4E204641494C454441
:1082C00000000000534F46544445564943453A2068
:1082D000494E56414C4944204D454D4F525920413D
:1082E0004343455353000000415353455254494FB3
:1082F0004E204641494C45442061742025733A255F
:10830000750000004552524F52202575205B2573A1
:108310005D2061742025733A25750D0A5043206154
:10832000743A20307825303878000000456E64209B
:108330006F66206572726F72207265706F72740062
:10834000554E4B4E4F574E204641554C542061746C
:108350002030782530385800F0ED00E018B50123C2
:1083600000939DF800301E4B186059609A606FF4BE
:108370008043034463B1012B19D1194BDA60DB68E8
:108380001B68174CA3612346DB685B68E3610EE062
:10839000134B1A611B699B68114C636123461B696F
:1083A0001B68A36123461B695B68E36100BF00BFD4
:1083B0000B4B1B680A4B5B68094B9B68084BDB68DF
:1083C000074B1B69064B5B69054B9B69044BDB69DB
:1083D00072B600BF9DF80030002BFBD162B618BD0D
:1083E000683B002070B504460D46204604F07EF838
:1083F00028B12946204604F06DF8002070BD052004
:10840000FCE7034609B90E20704712B1501E104018
:1084100008B10920F8E71960501E98800020986084
:10842000D86000BFF0E770B504460D46204604F062
:108430005DF8A188884205D82946204604F069F8ED
:10844000002070BD0420FCE7F8B54FF6FF753848F2
:10845000007800B9F8BD374800880CF07DFA054671
:108460003549364A891AC908032242EA01402A4698
:1084700033A107F0C5FF4FF6FF70854222D02E4989
:108480002E4A891AC908032242EA01402A4634A129
:1084900007F0B6FF28460CF067FB0446002C36D0E8
:1084A000204608F00FFE06462349244A891AC908C7
:1084B000032242EA014033462F4A3049009507F033
:1084C000BBFFC7E71B480088012820DB1A491B4A6D
:1084D000891AC908032242EA014029A107F086FF50
:1084E00000200CF041FB04468CB1204608F0EAFD68
:1084F00006461149114A891AC908032242EA014075
:1085000033461D4A1D49009507F096FFA2E700205B
:10851000074908700849094A891AC908032242EA2A
:10852000014003490A781EA107F06AFF00BF91E7E6
:10853000572C0020542C002090A90300E0A8030031
:108540006E65772070656572696E67202C6E657840
:108550007420706565722069642069732025640049
:108560006E65787420706565722064656C657465ED
:108570003A202564000000008C850300388C03003D
:1085800044656C65746520746865206669727374EF
:108590002070656572206964203A30200000000078
:1085A0006170705F706565725F7375636365737327
:1085B00066756C6C203D20256400000010B50446F3
:1085C000022C0AD10C490D4A891AC908032242EA31
:1085D00001400BA107F00AFF01E0012010BD00BF20
:1085E0000549064A891AC908032242EA014010A136
:1085F00007F0FCFE0120F1E790A90300E0A80300CA
:10860000506F776572206D616E6167656D656E7420
:108610002077616E747320746F20726573657420A7
:10862000746F20444655206D6F64652E0000000075
:10863000506F776572206D616E6167656D656E74F0
:1086400020616C6C6F77656420746F207265736550
:108650007420746F20444655206D6F64652E0000B1
:1086600010B5024803F000F910BD0000E02D002015
:1086700010B503460C460AB9072010BD19684A61B7
:10868000012C01D1012000E0002008610020F4E766
:1086900038B5134800680090082358221149124841
:1086A000006806F0DAF904460CB1204638BD0F4ADE
:1086B00069460F4803F0DEF804460CB12046F5E7A2
:1086C00001210B4803F07CF901230A4A19460848A6
:1086D00003F09CF80120084908702046E6E70000F6
:1086E00080880300883B0020708803004F5A0300F5
:1086F000E02D0020FFFF7F00EC2D00202DE9F04150
:1087000006460D4617463446207F10B10020BDE8CE
:10871000F081A76104F0A6FC401941F10001C4E911
:108720000201206900B12561214600200EF0C0FE43
:10873000EDE770B50446254600202877294601203C
:108740000EF0B6FE70BD00002DE9F0410446104861
:10875000077821460F48FFF745FE8046A7B1002065
:108760000B49087001220C490C4806F0B1FD054682
:1087700000BF2E4636B100BF09A2D6213046FEF713
:1087800049FD00BF00BF00BF4046BDE8F0810000CA
:108790001E2E0020F03B00201D2E0020042E002065
:1087A0002E2E5C2E2E5C2E2E5C2E2E5C2E2E5C2E03
:1087B0002E5C636F6D706F6E656E74735C6C696256
:1087C0007261726965735C756172745C6170705F0F
:1087D000756172745F6669666F2E63002DE9F04102
:1087E00088B004460E46174698462B4807601EB9C7
:1087F000072008B0BDE8F081B08882B22748316810
:10880000FFF7FFFD054600BF284600B1F1E700BFB6
:10881000B08982B22248B168FFF7F3FD054600BF78
:10882000284600B1E5E700BF20221E496846FEF752
:108830002BFE60690690207C08B1012000E000203A
:108840008DF814008DF81C80607C08B10E2000E0CB
:1088500000208DF81500E0680290A0680390206861
:10886000019060680090104A6946104806F0EAFCE2
:10887000054600BF284600B1BBE700BF00200C49F9
:1088800008702068401C28B101220A49074806F0F8
:108890001FFDAEE70020ACE7182E0020F03B0020C3
:1088A000003C00208488030059770300042E002038
:1088B0001E2E00201D2E00202DE9F04105462946E0
:1088C0001448FFF7B0FD064606BB134C002720787E
:1088D0001249085C20B1201D09F022F9074608E082
:1088E00020780E49085C20B904F10C0008F0C0FFA4
:1088F000074600BF57B90A490648FFF773FD28B974
:1089000001220749044806F005FD06463046BDE849
:10891000F0810000003C0020042E0020B02D00203B
:108920001C2E002010B5044620460DF02BFA10BD79
:1089300070B5044625460E488068B0B1ADB9FFF762
:108940000BF906460A4800680A490860084840686A
:108950004FF0E021C1F804010020054988601EB9EC
:1089600000BF62B600BF00BF00BF00BF70BD000007
:10897000103C002000E100E0F8B505460C46174623
:108980002088001DB84201D90C20F8BD684679DF67
:10899000064600BF304600B1F7E700BF032021883C
:1089A00068542088401C2080192021886854208821
:1089B000401C208020884119BDF800000FF0F6F817
:1089C0002188084420800020DFE770B505460C466A
:1089D0002068401C28B1206807F0BBF9206807F028
:1089E00003F96068401C18B10021606807F0E2F8E4
:1089F0002868A169C0F8241500BF617D227D286820
:108A000041EA0203C0F86C3500BFD4E900122868BF
:108A100008F092FB207D012814D1A068401C18B1F9
:108A20000021A06807F0C6F8E068401C28B1E068A3
:108A300007F08FF9E06807F0D7F8D4E90221286839
:108A400008F062FB70BD70B505460C462068401CFE
:108A500028B1206807F08AF9206807F0D1F860682B
:108A6000401C18B10021606807F0B1F82868A169BE
:108A7000C0F8241500BF617D227D286841EA020309
:108A8000C0F86C3500BFD4E90012286808F08EFBEE
:108A9000207D012814D1A068401C18B10021A068D5
:108AA00007F095F8E068401C28B1E06807F05EF92F
:108AB000E06807F0A5F8D4E90221286808F057FB20
:108AC00070BD70B504460D46204605F05BFB70BDD9
:108AD00010B50446637903F003022179208805F07C
:108AE0000FFB10BD10B50446207918B9204600F0E0
:108AF00007F803E02046FFF7EBFF00BF00BF10BD03
:108B00002DE9FE4307463E884FF0000800225948F1
:108B10000178304600F0DCFC7879C0F3800028B999
:108B2000002138460AF092F8BDE8FE8306F5807110
:108B300088B201AB012207210AF0A8F90546C5B1A8
:108B4000284608F0BFFA81464B494C4A891AC908A1
:108B5000012242EA014033464A46494907F05CFC9B
:108B6000294630460DF058FC002138460AF06EF8D0
:108B7000DAE7304604F02EFE04464FF6FF718C42D1
:108B80001BD1029804F076FD04464FF6FF70844234
:108B900013D02146304604F0FBFD3046FFF782FA41
:108BA00058B930460DF0CCFB3046FFF77BFA20B9C0
:108BB000002138460AF04AF8B6E74FF6FF708442C3
:108BC0001FD10AF079FB04464FF6FF70844212D1A0
:108BD00029492A4A891AC908012242EA014029A1E1
:108BE00007F004FC042130460DF016FC0021384645
:108BF0000AF02CF898E72146304604F0C9FD4FF002
:108C0000010806F5807188B2224607210AF0C6F9EC
:108C1000054625B9012138460AF018F828E0862DC6
:108C200007D130460DF0BEFB012138460AF00EF8A0
:108C30001EE0284608F046FA81460F490F4A891A75
:108C4000C908012242EA014033464A461A490094C3
:108C500007F0F2FB294630460DF0DEFB00213846D6
:108C600009F0F4FFB8F1000F02D0204604F09AFD9D
:108C700000BF59E7812D002020A90300E0A80300D0
:108C8000709C0300436F756C64206E6F7420616C80
:108C90006C6F63617465206E657720706565725FC7
:108CA000696420666F7220696E636F6D696E6720FC
:108CB000626F6E642E0000008C9D0300002114E0A2
:108CC0000C48D0F81024012308E000BFD0680079D8
:108CD000884201D1002303E0D0680268002AF4D161
:108CE00000BF0BB108467047491C0A29E8DB4FF06A
:108CF000FF30F8E7603F00202DE9F04104460F46C1
:108D0000154615B90E20BDE8F0810020286000BF8F
:108D10000CB90E20F7E700BF00BF206808B90E208D
:108D2000F1E700BF00BFE088C11700EB9171891027
:108D3000A0EB810109B10720E5E700BF384600F04C
:108D40001DFBC6B2142E01D10520DCE72079B0420C
:108D500001DC0420D7E7E188206806FB01002860D9
:108D60000020D0E72DE9FC41054688461646002440
:108D700037880020308095F82D0058B13A463146AA
:108D8000404600F0C9FB044600BF204608B1BDE8DC
:108D9000FC8100BFA87850B13A4631464046FFF703
:108DA000EBFD044600BF204600B1F0E700BFE878C5
:108DB00060B1E97848B23B463246414603F0FEFBDB
:108DC000044600BF204600B1E1E700BF686868B113
:108DD000696891F900003B46324641460EF0FFFBC0
:108DE000044600BF204600B1D1E700BF2889002813
:108DF0000EDD43460622022105F10800CDE9006799
:108E00000EF0DBFF044600BF204600B1BFE700BF05
:108E1000288A00280EDD43460722032105F11000B1
:108E2000CDE900670EF0C9FF044600BF204600B13F
:108E3000ADE700BF288B00280EDD43461522142124
:108E400005F11800CDE900670EF0B7FF044600BF3A
:108E5000204600B19BE700BF286A58B13B46324626
:108E60004146286A02F0E4F9044600BF204600B1FA
:108E70008DE700BF686A58B13B4632464146686A92
:108E800005F05AFB044600BF204600B17FE700BF53
:108E900095F82C0000280BDD3B463246414628461B
:108EA0000DF06EFC044600BF204600B16FE700BF26
:108EB000287858B13B4632464146284605F02BFCFF
:108EC000044600BF204600B161E700BF20465EE7D0
:108ED000F8B504460E461546002000902B466A461B
:108EE0003146204600F008F807460FB90020F8BDCB
:108EF000BDF800002044FAE7F0B504460D461E46D2
:108F000004B10AB90020F0BD002103E0605C401C00
:108F1000084481B2481CA84206DA10888842F5DC71
:108F2000481C205CB042F1D1A94201DB0020EAE7F5
:108F3000881C87B2605C10B1605C401E00E00020BD
:108F400083B213B1F818A84201DD0020DBE71780D7
:108F50001846D8E780F83010704770B504460D46C3
:108F600005B10CB90E2070BD05F1780002F009F9C9
:108F700008B90720F7E70020A0702C2205F178013E
:108F8000201DFEF781FA002084F83000D5F8A400F7
:108F90006063D5F8A800A0634FF6FF70A4F824041E
:108FA00004F58260C4F82004002140F22C40C4F88B
:108FB0002614A4F82A140155207810B9FF2084F84B
:108FC000540004F15500C4F810042046FEF729FFB0
:108FD00040F21441085304F2144204F155012846AA
:108FE000FFF7C0FE064600BF304600B1BBE700BF3A
:108FF00004F231204FF4836108512046FEF711FF3F
:10900000A4F81C044FF48360015904F21C4205F1DA
:109010003C00FFF7A7FE064600BF304600B1A2E7BE
:1090200000BF012151200155208B81B248200153FE
:10903000012084F83C000021216450200155616921
:10904000616404F13C02002104F1540072DF064621
:1090500000BF304600B186E700BF012020703046D7
:1090600081E770B504460D462C222946201DFEF7E7
:109070000BFA70BD70B504460D462E4620881028A8
:1090800004D0112807D026280FD109E02146304608
:1090900008F03AFF0AE02146304609F02FF905E0D2
:1090A0002146304609F04DFB00E000BF00BF70BD17
:1090B00070B5044694F8540074DF002084F82E0440
:1090C000012084F83004002150200155062120465B
:1090D00003F08FFA054600BF284600B170BD00BFFF
:1090E000A178204600F02EF8054625B1A06B10B1FE
:1090F0002846A16B88470020F0E770B5044694F835
:10910000540074DF012084F82E04002084F8300419
:109110000021502001550621204603F080FA054623
:1091200000BF284600B170BD00BFA178204600F006
:1091300009F8054625B1A06B10B12846A16B8847F8
:109140000020F0E770B504460E46207808B90820E4
:1091500070BDA670002140F22C40C4F82614A4F87B
:109160002A140155A07910B1A078012809D0E0791E
:1091700010B1A078012804D0E07970B1A07802285D
:109180000BD1606B30B1012084F82D040820616B95
:10919000884702E0002084F82D0431462046FEF77F
:1091A0000BFEA070606BA0B1A078032802D0A0785D
:1091B00004280ED1607960B194F82E0448B90020DB
:1091C00084F83004012084F82F040720616B88475D
:1091D00002E0002084F82F04182104F13C00FEF77F
:1091E0006CF9012084F83C0004F12C000AF0F5FA37
:1091F00020B194F82C105120015502E0012151209A
:10920000015594F8240060B104F128000AF0E5FA51
:1092100020B194F828105220015502E0012152207B
:109220000155002150200155A078052824D2DFE8FF
:1092300000F01F030A11180004F13C0120460DF054
:1092400057FB054619E004F13C0120460DF038FBC0
:10925000054612E004F13C0120460DF05BFB05469B
:109260000BE004F13C0120460DF082FB054604E0D2
:10927000002084F8310000E000BF00BFA07898B162
:1092800004F13C0204F15400D4F8201472DF0546C6
:109290000DB128465CE794F8301094F8540073DF61
:1092A00005460DB1284653E7606B18B194F83100BC
:1092B000616B884700204BE730B50446039D94F866
:1092C0002F0408B9082030BD002084F82F0402B90B
:1092D0000DB1012000E0002084F830040020F2E706
:1092E0002DE9F041044600BF14B90E20BDE8F0811D
:1092F00000BF1C2221461C48FEF7C6F81B481A492D
:109300000860206860B120687ADF05460DB1284604
:10931000ECE7164821680A6802604968416005E088
:1093200012487BDF05460DB12846DFE7002617E02F
:1093300006EB86000E4901EB800700BF4FF6FF7079
:10934000388000BF0B4800EB461078600A4A0021C5
:10935000381DFFF78DF905460DB10320C6E7761CD1
:10936000002EE5D00020C1E7DC3600207C2C002058
:10937000C8360020A8360020C97C030010B504467A
:10938000204600F0BBF808B1204610BD1420FCE7D1
:1093900010B50446204600F0B1F820B1214603483C
:1093A00005F0FDFB10BD0020FCE7000008370020A1
:1093B00070B504460D46034988682A46214603F0E5
:1093C000A3F970BDF836002070B504460D46164668
:1093D00020460EF0C3FC08B9002070BD034951F8C7
:1093E00024003246294603F08FF9F6E714370020AF
:1093F00010B50446204600F081F820B1214603480C
:1094000005F0CDFB10BD0020FCE700001037002068
:1094100010B50446204600F071F820B121460348FB
:1094200005F0BDFB10BD0020FCE700000C3700205C
:1094300070B504460025204600F060F850B1214682
:10944000054805F0ACFB06460EB1022000E0012005
:10945000054600BF284670BD0437002070B504469D
:109460000025204600F04AF850B12146054805F095
:1094700096FB06460EB1022000E00120054600BF23
:10948000284670BD0037002010B51821044805F0AB
:1094900056FB0446182C00D110BDE0B2FCE70000DA
:1094A000F836002070B505460C4620460EF056FCF6
:1094B00050B1284600F022F830B1044901EB840095
:1094C000294605F06CFB70BD0020FCE71437002036
:1094D00070B505460C46164620460EF03FFC50B1CE
:1094E000284600F00BF830B1034901EB8400324606
:1094F000294603F054F870BD1437002010B5044617
:10950000142C01DB002010BD2146024805F047FB6A
:10951000F9E70000FC3600202DE9FC4105460C4629
:10952000174620880930B84202D90C20BDE8FC81DA
:1095300068466DDF064600BF304600B1F6E700BF63
:109540000820218868542088401C20801B20218806
:1095500068542088401C208020882844DDF80110B1
:109560000160BDF8051081802088801D20809DF855
:109570000000400818B900202188685402E001204A
:10958000218868542088401C20800020CEE70000FD
:1095900070B505F04BFD04460CB926A002E020464C
:1095A00007F090FD05462549254A891AC908042275
:1095B00042EA01402A4623A106F022FF00BF2046CE
:1095C00000B170BD00BF00BF284D28464FF0020C0F
:1095D00000DF00BF04460CB916A002E0204607F0E9
:1095E00071FD05461549164A891AC908042242EA3E
:1095F00001402A461EA106F003FF00BF204600B12D
:10960000DFE700BF05F08CFD04460CB909A002E0BD
:10961000204607F057FD05460849094A891AC90836
:10962000042242EA01402A461AA106F0E9FE204639
:10963000C7E70000737563636573730090A9030047
:10964000E0A803006E72665F6466755F7376636997
:109650005F766563746F725F7461626C655F73657A
:10966000742829202D3E2025730000002446002068
:109670006E72665F6466755F7365745F7065657250
:109680005F646174615F696E69742829202D3E20D2
:10969000257300006E72665F6466755F737663693A
:1096A0005F766563746F725F7461626C655F756E1F
:1096B0007365742829202D3E2025730010B50446BB
:1096C00000BF0CB90E2010BD00BF03480460034862
:1096D0000BF0F8FBF7E70000D42E0020153E030046
:1096E00010B51349134A891AC908042242EA0140F5
:1096F00011A106F07BFE4FF0FF3100203DDF044654
:1097000000BF204600B110BD00BFB12100203CDFEA
:10971000044600BF204600B1F5E700BF1348416989
:1097200001208847022007F0F1F80020EBE7000055
:1097300090A90300E0A80300496E20626C655F6495
:1097400066755F627574746F6E6C6573735F626F5C
:109750006F746C6F616465725F73746172745F665D
:10976000696E616C697A650D0A0000000846002088
:1097700010B50C490C4A891AC908042242EA014072
:109780000AA106F033FE15480068416900208847A9
:1097900009F0D4FE11490968086103F0BDFC0020FE
:1097A00010BD000090A90300E0A80300496E2062EC
:1097B0006C655F6466755F627574746F6E6C6573FB
:1097C000735F626F6F746C6F616465725F737461F5
:1097D00072745F707265706172650000D42E002033
:1097E00010B588B0044620216846FDF766FE0420C7
:1097F000ADF8000020788DF802009DF80D0020F0F3
:10980000200020308DF80D009DF80D0020F008009C
:1098100008308DF80D0001208DF810008DF80C0037
:109820001720ADF8040002208DF813008DF8120007
:1098300001208DF811006088A21D694601F058FBD7
:1098400008B010BD30B585B00546244B0FCB8DE870
:109850000F0000BF15B90E2005B030BD00BF4FF698
:10986000FF701F49888028684861002008760846F4
:10987000406908B91B4848611948FFF71FFF0446B3
:1098800000BF204600B1E7E700BF00BF01208DF810
:1098900012004FF65960ADF8100000BF104A921C3C
:1098A00004A90120A8DF044600BF204600B1D3E789
:1098B00000BF0B49684662DF044600BF204600B186
:1098C000CAE700BF0648FFF78BFF044600BF2046EB
:1098D00000B1C1E700BF0020BEE70000A08B03007D
:1098E00008460020FDBA020070B504460D4600BFD0
:1098F00004B970BD00BF2088102806D0112808D0F8
:1099000051280AD0532810D10BE0204608F0F6FA6F
:109910000CE0204608F0E4FC08E0204608F0BAFE1F
:1099200004E0204608F02CFE00E000BF00BF00BFAE
:10993000DFE7000070B505460426287B01280DD11D
:1099400002F00EF904460CB9012606E0112C01D1F3
:10995000062602E00F2C00D1072601E0022600BFF8
:1099600000BF012E0FD0287B314600F05FF804467F
:1099700024B105480068416903208847024800680F
:1099800041690220884770BDD42E002070B505467D
:109990000E4600BF2348006820B12248406808B145
:1099A000012000E0002000B970BD00BF1D4800F19B
:1099B0000801426828469047044600BF082C2FD073
:1099C000BCB90120184909680876002016490968C1
:1099D00048760121084600F029F8044604B31248ED
:1099E000006841690320884700200F49096808760C
:1099F00016E000200C49096808760B49096848768A
:109A00000621012000F012F8044624B1064800683F
:109A1000416903208847044800684169022088475B
:109A200000BFC1E724460020D42E0020F0B587B047
:109A300004460D46032700200190029003900490F5
:109A40000320069020208DF814008DF815408DF825
:109A500016500E48C088ADF8040002208DF80600AC
:109A60000020ADF8080006A8039005A80490074957
:109A7000888801A9AEDF064626B9BDF8180003287C
:109A800000D00C26304607B0F0BD0000084600208C
:109A900030B58BB0044634B1012C29D0022C32D021
:109AA000032C49D13AE02B492B4A891AC9080322D1
:109AB00042EA014029A106F099FC6846FEF7E4F964
:109AC00001208DF8000069463048FFF7CAFA0021EE
:109AD0002F48FFF76DFC05461E491F4A891AC90821
:109AE000032242EA01402A462AA106F089FC2EE020
:109AF0001849194A891AC908032242EA01402BA1D0
:109B000006F074FC23E01349134A891AC90801229C
:109B100042EA01402EA106F069FC18E00D490E4A08
:109B2000891AC908012242EA014038A106F05EFC08
:109B300000BF002000BF0AE00649074A891AC90889
:109B4000012242EA01403DA106F050FC00BF00BFE7
:109B50000BB030BD90A90300E0A80300446576690E
:109B6000636520697320707265706172696E672029
:109B7000746F20656E74657220626F6F746C6F61B4
:109B8000646572206D6F64652E000000102F002048
:109B90002DB70200446973636F6E6E65637465640C
:109BA000202564206C696E6B732E00004465766915
:109BB00063652077696C6C20656E74657220626FD6
:109BC0006F746C6F61646572206D6F64652E000048
:109BD0005265717565737420746F20656E7465725B
:109BE00020626F6F746C6F61646572206D6F646565
:109BF000206661696C6564206173796E6368726F59
:109C00006E656F75736C792E00000000526571757A
:109C100065737420746F2073656E642061207265B3
:109C200073706F6E736520746F20636C69656E74FA
:109C3000206661696C65642E00000000556E6B6ED5
:109C40006F776E206576656E742066726F6D206228
:109C50006C655F6466755F627574746F6E6C657356
:109C6000732E0000F8B505460F4628460AF042FD5F
:109C70002889B0F5285F15D16149624A891AC90857
:109C8000032242EA014060A106F0B0FB2A8A5C4947
:109C90005C4BC91AC908032343EA014005F11201CC
:109CA00006F030FB28883B287DD006DC102809D040
:109CB000112837D0212877D148E0522863D0562880
:109CC000F9D188E04E494F4A891AC908032242EA6D
:109CD000014050A106F08AFB072000F037FD044642
:109CE00000BF26463EB100BF4DA240F2573130467C
:109CF000FDF790FA00BF00BFA8884D4908800846CC
:109D000001884C4805F00EF9044600BF26463EB1D6
:109D100000BF43A240F25A313046FDF77BFA00BF44
:109D200000BF6AE03649374A891AC908032242EA65
:109D3000014041A106F05AFB4FF6FF703C490880F4
:109D4000414908800020FEF7F5F856E02C492D4ADD
:109D5000891AC908042242EA01403CA106F046FBE8
:109D600000200090A88869468FDF044600BF264681
:109D70003EB100BF2AA240F26E313046FDF74AFAEA
:109D800000BF00BF39E000231A4619462848008862
:109D9000B1DF044600BF264656B100BF20A240F204
:109DA0007A31304601E005E026E0FDF733FA00BFE6
:109DB00000BF22E0A888132176DF044600BF2646B4
:109DC0003EB100BF16A240F281313046FDF722FAC3
:109DD00000BF00BF11E0A888132176DF044600BF52
:109DE00026463EB100BF0EA24FF462713046FDF729
:109DF00011FA00BF00BF00E000BF00BFF8BD0000C7
:109E000090A90300E0A80300476574206E616D65AA
:109E10003A000000436F6E6E656374656400000075
:109E20002E2E5C2E2E5C2E2E5C6D61696E2E6300D4
:109E3000482C0020042F0020446973636F6E6E6508
:109E40006374656400000000542C002050485920C1
:109E500075706461746520726571756573742E0028
:109E600070B505460E462888102802D011282CD13E
:109E700015E01748006860B901F0DAFA044600BF3F
:109E800034B11448006818B120461249096888475F
:109E900000BF0F480068401C0D49086016E00C48E0
:109EA0000068401E0A4908600846006860B9FDF76E
:109EB000C1FF044600BF34B10648006818B120460F
:109EC00004490968884700BF00E000BF00BF70BDBB
:109ED000782C0020742C002070B504460D46208894
:109EE000102806D0112808D012280ED0502810D1E2
:109EF00007E0204607F090FF0CE0204608F0D6F976
:109F000008E0204608F04EFC04E0204607F06CFF15
:109F100000E000BF00BF70BD2DE9F04104460F46D0
:109F2000A6882088102806D0112819D019283FD0DB
:109F30001A284AD118E00BF081FC30460BF0F2FAF7
:109F400030B900BF22A2F0210420FDF763F906E03A
:109F5000E07B022803D131462C4804F02FFE34E088
:109F600030460BF08FFC30E0207A0509042D01DB30
:109F7000012000E000200246314624480C3002F067
:109F80000EFB032D01DB012000E0002002463146DC
:109F90001E48083002F003FB022D01DB012000E027
:109FA0000020024631461948001D02F0F8FA0CE084
:109FB000207A48B9607AC0F3C0052A463146134872
:109FC0000C3002F0ECFA00BF00BF00BFBDE8F0812A
:109FD0002E2E5C2E2E5C2E2E5C2E2E5C2E2E5C2EBB
:109FE0002E5C636F6D706F6E656E74735C626C6512
:109FF0005C636F6D6D6F6E5C626C655F636F6E6EE0
:10A000005F73746174652E630000000004370020E4
:10A0100070B504460D4600BF0748007800B970BD12
:10A0200000BF204603F014FA20460CF0CDFD204678
:10A0300002F0F8FD00BFF2E7BC2C00202DE9F04152
:10A0400086B00446884617461D4600BF1CB90E2040
:10A0500006B0BDE8F08100BF01AA29466069FEF79D
:10A060004BFE064600BF304600B1F1E700BF4FF699
:10A07000FF70854201D0019808B90520E8E70198F2
:10A08000007808B90820E3E73888F42801DD0720C4
:10A09000DEE700200290039004900590A088ADF8C0
:10A0A0000800CDF81480049701208DF80A0002A959
:10A0B0002846AEDFCCE70000F0B58DB004460F4671
:10A0C00016463E4B0FCB08AD0FC500BF14B90E208E
:10A0D0000DB0F0BD00BF00BF0FB90E20F8E700BF04
:10A0E0003868A061214608A862DF054600BF2846FF
:10A0F00000B1EDE700BF20788DF832000120ADF807
:10A100003000A21C0CA9A8DF054600BF284600B1FC
:10A11000DEE700BF20216846FDF7CFF90220ADF849
:10A12000000020788DF80200F420ADF80400012032
:10A13000ADF806008DF80C009DF80D0020F0080029
:10A1400008308DF80D009DF80D0020F00400001D72
:10A150008DF80D008DF811608DF81260608804F1A3
:10A160000C02694600F0C4FE05460DB12846AFE773
:10A1700020216846FDF7A1F90320ADF80000207802
:10A180008DF80200F420ADF804000120ADF80600BF
:10A190008DF80C009DF80D0020F0100010308DF8A7
:10A1A0000D008DF811608DF812608DF813606088D5
:10A1B000221D694600F09CFE8AE70000B487030078
:10A1C00070B504460D4605B104B970BD2E46208811
:10A1D000102804D0502807D057280FD109E0214675
:10A1E000304607F051FE0AE02146304608F006FBF3
:10A1F00005E02146304608F0D9F900E000BF00BF75
:10A2000000BFE2E770B5044620460DF0C9FC0546E4
:10A21000C5F3400070BD70B5044620460DF0C0FC8B
:10A22000054605F0010070BD38B506F0F9FD04469D
:10A2300000BF25463DB100BF15A240F29B31284624
:10A24000FCF7E8FF00BF00BF002000906946012036
:10A2500006F0E0FB044600BF25463DB100BF0CA25E
:10A2600040F2A1312846FCF7D5FF00BF00BF684689
:10A2700006F0A0FC044600BF25463DB100BF04A285
:10A2800040F2A5312846FCF7C5FF00BF00BF38BD2E
:10A290002E2E5C2E2E5C2E2E5C6D61696E2E630060
:10A2A00001460148405C7047C4850300F8B5044688
:10A2B0000A48005D0090684605F0E6FC064600BFCF
:10A2C000D6F810050099C84000F0010008B101203F
:10A2D00000E00020054685F00100F8BDC4850300BC
:10A2E0007CB500240DE00848055D032600200090A1
:10A2F0003346024601460190284605F0F3FB00BFB5
:10A30000641C042CEFD37CBDC485030010B5044647
:10A3100004F0010008B100F051F804F0020008B1A7
:10A32000FFF7DEFF10BD0000F8B505460B48405DA5
:10A330000090684605F0A8FC0446D4F804650120A6
:10A3400000998840B043C4F808050120009988406E
:10A350003040C4F80C0500BFF8BD0000C085030004
:10A3600010B504460249085D012105F00CFD10BD41
:10A37000C085030010B504460249085D002105F0C0
:10A3800002FD10BDC0850300F8B504460A48005D13
:10A390000090684605F078FC064600BFD6F8040534
:10A3A0000099C84000F0010008B1012000E0002041
:10A3B000054685F00100F8BDC08503007CB500248A
:10A3C0000CE00948055D002000900346012211467B
:10A3D0000190284605F086FB00BF641C042CF0D3D6
:10A3E00000F004F87CBD0000C085030010B5002417
:10A3F00003E02046FFF7B4FF641C042CF9D310BD22
:10A4000010B5002403E02046FFF7B4FF641C042CC1
:10A41000F9D310BD02464FF0FF30002106E0054B96
:10A420005B5C934201D1084602E0491C0429F6D343
:10A4300000BF7047C485030070B505460C46002672
:10A440000648056014B120460CF084FE04480068FC
:10A4500010B9FDF7EFFC0646304670BD742C0020A5
:10A46000782C002010B5002000F09AFB044600BFB5
:10A470001CB1062C01D0204610BD00BF012000F009
:10A480008FFB044600BF1CB1062C01D02046F3E729
:10A4900000BF0020F0E700002DE9F04106460F461E
:10A4A0004FF0000800243046FFF7B4FF0446042CA8
:10A4B0003ED20FB3012F02D0022F38D130E004EB8F
:10A4C0004400214911F8008004EB4400084440781E
:10A4D00050B11E4A4FF480411D480068FEF70EF946
:10A4E00005460DB91948067004EB440016490844A6
:10A4F0008078184908551AE015480068FEF719F9E0
:10A500001448005D04EB44010F4A114489788842E5
:10A5100005D104EB44001146084490F8028006E09F
:10A5200004EB44000849084490F8018000BF00BFD4
:10A53000B8F1000F06D00848006818B14046064937
:10A5400009688847BDE8F081783600206C2C00202F
:10A55000D08503006D2C0020682C002010B5044627
:10A56000042C03D22046FFF7A1FE10BD0020FCE71B
:10A5700070B505460F2D1FD004DC042D08D00A2D20
:10A580006DD104E0102D3AD0112D68D15AE067E06A
:10A5900013213448008876DF0446082C0BD000BF16
:10A5A00026463EB100BF30A240F203413046FCF7E0
:10A5B00031FE00BF00BF53E02A4800884FF6FF710C
:10A5C00088421BD12C492D4A891AC908032242EA24
:10A5D00001402BA105F00AFF3248FEF769FD044651
:10A5E000082C0BD000BF26463EB100BF1EA240F291
:10A5F0000E413046FCF70EFE00BF00BF30E01948A8
:10A6000000884FF6FF7188421BD11B491B4A891AEB
:10A61000C908032242EA014023A105F0E7FE2148D0
:10A62000FEF76BFD0446082C0BD000BF26463EB15A
:10A6300000BF0DA240F21A413046FCF7EBFD00BF0F
:10A6400000BF0DE00C490D4A891AC908032242EAED
:10A6500001401FA105F0CAFE00F0D2FF00E000BFDC
:10A6600000BF70BD482C00202E2E5C2E2E5C2E2E9E
:10A670005C6D61696E2E630090A90300E0A8030081
:10A680004253505F4556454E545F4B45595F312C00
:10A6900061647620776974682077686974656C698D
:10A6A00073740000102F00204253505F4556454EF2
:10A6B000545F4B45595F322C61647620776974682A
:10A6C0006F75742077686974656C69737400000035
:10A6D0004253505F4556454E545F4B45595F332CAE
:10A6E00064656C6574655F626F6E64730000000082
:10A6F00030B503460020042B23D2012A07D10129BB
:10A7000003D103F10E04E4B200E00024224679B143
:10A71000012902D0022911D104E003EB43040A4DC0
:10A720002A550DE003EB4304074D2C44627007E00B
:10A7300003EB4304044D2C44A27001E0072000BF4A
:10A7400000E0072030BD00007836002070B50446D8
:10A7500000250548007800F0010018B1204600F0FF
:10A760005BF80546284670BD602C00202DE9F041BD
:10A7700005460F4600241F4805601F48076005F086
:10A78000020000B3002606E0012211463046FFF722
:10A79000AFFF0446761C042E01D2002CF4D034B94D
:10A7A00040F2333204211548FDF79CFC044614B9ED
:10A7B000FDF782FC04462CB9114A00211148FDF72F
:10A7C00057FF044600BF05F0010080B10120FFF7EC
:10A7D0009DFD2CB90C4A00210C48FDF749FF0446A9
:10A7E0002CB90B4A01210B48FDF742FF04462046D5
:10A7F000BDE8F081602C0020682C0020D485030087
:10A8000009AD0200D08503008DDE0200C88503007B
:10A8100097800200CC8503002DE9F047044600260E
:10A820000025DA48007820B10020D849087003F0EC
:10A8300019FB182C7ED2DFE804F00C16174A7EB202
:10A84000F6F4F3F2F1F0EFEEEDECEBEAE9E8E7E62F
:10A85000E5E403F007FBCE480068FDF76AFF064613
:10A86000CC4804708DE100BF0020FFF78DFD58B18A
:10A870000020FFF775FD022C02D14FF4E16001E0EA
:10A880004FF47A60054609E00020FFF773FD022CC3
:10A8900001D1C82001E04FF4C8700546BD480470DE
:10A8A0004FF40040A5FB00104FF47A73CF1840F12D
:10A8B00000015A0000233846FCF7A2FD8146002221
:10A8C0004946B3480068FDF719FF064659E10020E4
:10A8D000FFF75AFD58B10020FFF742FD032C02D1CB
:10A8E0004FF4487001E04FF47A60054609E000201B
:10A8F000FFF740FD032C01D1C82001E04FF4C870E0
:10A900000546A44804704FF40040A5FB00104FF426
:10A910007A728F1840F10001520000233846FCF78C
:10A920006FFD81460022494699480068FDF7E6FE22
:10A93000064626E124E10020FFF726FD58B100205D
:10A94000FFF70EFD042C02D14FF47A6001E04FF4C2
:10A950007A6005460AE00020FFF70CFD042C02D1C6
:10A960004FF4C87001E04FF4C87005468948047080
:10A970004FF40040A5FB00104FF47A73CF1840F15C
:10A9800000015A0000233846FCF73AFD81460022B8
:10A9900049467F480068FDF7B1FE0646F1E0002019
:10A9A000FFF7F2FC50B10020FFF7DAFC052C01D1D3
:10A9B000C82001E04FF47A60054609E00020FFF767
:10A9C000D9FC052C01D1C82001E04FF4C870054620
:10A9D000704804704FF40040A5FB00204FF47A73D8
:10A9E000D71840F100015A0000233846FCF708FD53
:10A9F00081460022494666480068FDF77FFE06460C
:10AA0000BFE0B8E0B6E0AAE0A1E098E092E05FE045
:10AA10005DE05BE059E057E051E042E033E024E0E4
:10AA200015E00EE0FFE70020FFF77EFC59480470B8
:10AA3000002240F2666156480068FDF75FFE064658
:10AA40009FE00020FFF796FC5248047099E0012037
:10AA50004E490870FFF768FC002240F266614C48DE
:10AA60000068FDF74BFE06468BE001204749087061
:10AA7000FFF75AFC00224FF4005145480068FDF7EB
:10AA80003DFE06467DE0012040490870FFF74CFC82
:10AA9000002240F266613E480068FDF72FFE064640
:10AAA0006FE0012039490870FFF73EFC00224FF4A7
:10AAB000005137480068FDF721FE064661E0FFF7C8
:10AAC0009FFC344804705CE000BF00BF00BF00BFC3
:10AAD00031480068FDF72DFE0646C4F1110515B397
:10AAE0000EBB012D18D9A8B2C82148434FF400412C
:10AAF00080FB01104FF47A728F1840F10001520070
:10AB000000233846FCF77CFC814600224946224857
:10AB10000068FDF7F3FD06460220FFF72BFC01203D
:10AB20001E49087005E00220FFF71AFC00201B49AF
:10AB3000087026E003F096F91648047021E003F04F
:10AB400091F90020FFF716FC1248047019E003F099
:10AB500089F90120FFF70EFC0E48047011E003F0A4
:10AB600081F90020FFF706FC0120FFF703FC0948EC
:10AB7000047006E000BFFFF743FC0648047000E0E5
:10AB800000BF00BF3046BDE8F08700005D2C00200C
:10AB9000C88503005C2C0020CC850300642C0020B9
:10ABA00010B50446012120460DF09AF910BD0000B1
:10ABB0002DE9FC4704460D461646A71C4FF0010838
:10ABC0000020019001A8FDF7ADFE304840682860E4
:10ABD0002E4840682D498968411A2D480068401C5C
:10ABE000A0EB010915E001212A4804F00BF803F05D
:10ABF000E5FB82465146274804F004F823484068A4
:10AC000022498968411A22480068401CA0EB0109CA
:10AC100000BF4F45E7D8B8F1000F30D000210091B8
:10AC200076B1009921F00301491C0091009921F0AF
:10AC30000401091D0091009964F3891100910DE050
:10AC4000009921F00301891C0091009921F0040171
:10AC5000091D0091009964F39F5100910B494968C7
:10AC60000B4A12681140094A0C3202EB810000992C
:10AC700001600649496839440C3A516000BF9DF8AB
:10AC80000400FDF755FE4046BDE8FC87603F00200C
:10AC90008C2E00207C43002070B504460D460A2D02
:10ACA00003D10D212046FFF7F7FFA168481CA060E3
:10ACB00020684554D4E90110884202D3204604F0AC
:10ACC00060FB70BD0448806803494968884201D12F
:10ACD000012070470020FCE7603F00200246002171
:10ACE00008E0074B1B6803EBC1000378934200D1D7
:10ACF0007047491C034800788142F2DB0020F7E7E7
:10AD0000C82D0020CC2D002010B50446207802214B
:10AD1000FFF7C2FB10BD000070B504460D46032CC2
:10AD200006D1A9200349086000BF002005F0EEFD10
:10AD300070BD000020050040F8B505461549032008
:10AD4000FFF714FD044600BF26463EB100BF12A225
:10AD500040F2B3413046FCF75DFA00BF00BF6946E0
:10AD60000020FFF769FB044600BF26463EB100BF46
:10AD700009A240F2B6413046FCF74CFA00BF00BFD2
:10AD80009DF80000022801D1012000E00020287079
:10AD9000F8BD000071A502002E2E5C2E2E5C2E2E1A
:10ADA0005C6D61696E2E63007CB50446204602F03E
:10ADB00011FD054600236A46092108F0C5F905285A
:10ADC00005D10122024801782046FEF781FB7CBDB7
:10ADD000A42C00207CB504460E460020019042F6CB
:10ADE000A620ADF8040001208DF806000748006891
:10ADF00000906A4601A92046A0DF05462DB9012230
:10AE0000034801782046FEF763FB7CBD7086030093
:10AE1000A52C002001468879012809D1087901284C
:10AE200006D1488842F60212904201D101207047B3
:10AE30000020FCE74FF0FF31054A42F820100828B7
:10AE400004DBFF23A0F10801603253547047000077
:10AE50006C3A00200146024850F82100704700007B
:10AE60006C3A00202DE9F04F03460C464FF0FF39B5
:10AE70000AB1002000E0082084460AB1082000E062
:10AE80000C208046614624E0154850F82100401C03
:10AE9000F0B91D460846274616464FFA80FBDFF8F4
:10AEA00040A00AF1300A0AF805B0DFF834A04AF8E9
:10AEB00020704EB94FFA85FBA0F1080ADFF820E0B8
:10AEC0000EF1600E0EF80AB000BF4FFA81F902E0F1
:10AED000491C4145D8D300BF4846BDE8F08F00006B
:10AEE0006C3A002001460148405670479C3A0020C9
:10AEF00070B590B006460C461546A07818B90120EA
:10AF00008DF80E0002E0A0788DF80E002088ADF8D4
:10AF10000C0000200290607C02A90BF057FDA07C81
:10AF20000DF109010BF052FDE07B08B1012000E0BA
:10AF300000209DF80A1060F3C3018DF80A10207CF0
:10AF400008B1012000E000209DF80A1060F3041110
:10AF50008DF80A10207B08B1012000E000209DF848
:10AF60000A1060F300018DF80A10207D08B102205C
:10AF700000E001209DF80A1060F342018DF80A10EC
:10AF80001C2109A8FCF799FA607BC0F3001018B9DE
:10AF9000607BC0F34010F8B100200090E07C0DF120
:10AFA00001010BF013FD00BF9DF8000020F00F0021
:10AFB000401C8DF800009DF8000020F0F0001030DB
:10AFC0008DF8000000BF9DF8020020F00600801CF4
:10AFD0008DF80200CDF838D0607B8DF82400A07B7E
:10AFE0008DF82500142104A8FCF767FA03A8049043
:10AFF00002A80590A088ADF81C00A06820B1E088E8
:10B00000ADF81800A0680890A069002849D0002079
:10B010000190A0690088ADF82C00A0694088ADF8C7
:10B020002E00A06940680A9001A80D90A169087BD4
:10B0300001A90BF0CBFCA169487B0DF105010BF0D8
:10B04000C5FCA069807A08B1012000E000209DF8CD
:10B05000061060F3C3018DF80610A069C07A08B12C
:10B06000012000E000209DF8061060F304118DF827
:10B070000610A069007A08B1012000E000209DF8C8
:10B08000061060F300018DF80610A069807B08B1FE
:10B09000022000E001209DF8061060F342018DF8C7
:10B0A0000610E06908B1E0690C902B4604AA09A9D2
:10B0B0003046AADF10B070BD2DE9F04104460D46C0
:10B0C0004FF6FF76304684420AD14FF4807128460D
:10B0D00003F035FD86B2B6F5807F10D126460EE02E
:10B0E000FF2C0CDC2146284603F012FD80F00107FE
:10B0F0000FB1204601E04FF6FF70064600BF304614
:10B10000BDE8F08170B505460DB9094C01E0084C69
:10B11000083409E0204602F078FE064606B904E04D
:10B1200028467168884700BFF4E700BF70BD000083
:10B13000603A002010B504462CB901200649487039
:10B140000020FFF7DFFF012C04D1012002498870A5
:10B15000FFF7D8FF10BD0000583A00202DE9F04756
:10B16000024613468C46D3E90245DCE90267B6EB9A
:10B17000040877EB050002D30120BDE8F08700202A
:10B18000FBE701468878012805D191F820000128C5
:10B1900001D1002070470120FCE733B58BB0054694
:10B1A000002000900C9878B100240BE021460CA8F8
:10B1B00003F0F5FC28B1009A501C009001A820F87B
:10B1C0001240641C142CF1D32C2269462846FCF74B
:10B1D0005BF90DB030BD01460888062808DB0888F9
:10B1E000B0F5486F06DD08884FF6FF72904201D037
:10B1F000072070474888062808DB4888B0F5486F64
:10B2000006DD48884FF6FF72904201D00720F0E734
:10B2100008884FF6FF72904208D04888904205D0C7
:10B2200008884A88904201DD0720E2E70020E0E735
:10B230002DE9F04107460D46144698462088801DAA
:10B24000404502D90C20BDE8F0813846FFF7C3FF26
:10B25000064600BF304600B1F5E700BF0520218853
:10B2600068542088401C208012202188685420883F
:10B27000401C20802288511938880CF097FC2188C6
:10B28000084420802288511978880CF08FFC21888E
:10B29000084420800020D6E710B5044600BF04A271
:10B2A00040F2DA212046FBF7B5FF00BF10BD0000D9
:10B2B0002E2E5C2E2E5C2E2E5C6D61696E2E630030
:10B2C00030B587B01C216846FCF7F7F800200090E5
:10B2D0004FF4A03001904FF4F020029003208DF83D
:10B2E0000C000020ADF80E008DF810000A48059003
:10B2F0000A4806906846FDF7F3FF044600BF25465E
:10B300003DB100BF06A240F2F1212846FBF782FFC3
:10B3100000BF00BF07B030BDA91D030099B20200F5
:10B320002E2E5C2E2E5C2E2E5C6D61696E2E6300BF
:10B33000F8B505460C46607A88B9207A10B91048ED
:10B34000476801E00E4887682A4639466068FDF77D
:10B35000D5F9064616B130460BF004F80EE0002091
:10B3600020720748406948B101208DF80000ADF80F
:10B370000250034841696846884700BFF8BD000095
:10B38000DC360020F0B585B004460D4617461E4653
:10B3900014220B496846FCF777F8ADF802408DF8A7
:10B3A0000850ADF80A708DF80C600022054801784D
:10B3B0002046FEF78DF8684600F026FE05B0F0BD89
:10B3C00060870300812D002010B586B004462088D8
:10B3D00007F0F2FB00BB2088FDF7DAFF30B92088C8
:10B3E000012241F2060100F0AFFB15E020880022A7
:10B3F0000A490978FEF76CF802208DF804002088CD
:10B40000ADF8060000208DF80C0000218DF80D101D
:10B4100001A800F0F9FD00BF06B010BD812D00208D
:10B4200070B504460D4629462046FCF79BFB70BDCF
:10B4300010B5012200210846FFF75AF9044600BF63
:10B440001CB1072C01D0204610BD00BF07220221ED
:10B450000120FFF74DF9044600BF1CB1072C01D0B5
:10B460002046F1E700BF042202210020FFF740F947
:10B47000044600BF1CB1072C01D02046E4E700BF02
:10B480000020E1E72DE9FF4105460C4629492A4AFB
:10B49000891AC908042242EA01402B46224627A104
:10B4A00004F0BAFF002002900390ADF80840ADF818
:10B4B0000A40009001906A4602A9284690DF06469D
:10B4C000002E32D0304605F0FDFD074619491A4AD4
:10B4D000891AC908012242EA01403B462A4623490B
:10B4E00004F09AFFBDF8000010B9BDF8020068B181
:10B4F000BDF80230BDF800200E490F4FC91BC90826
:10B50000012747EA01401AA104F086FFBDF80400B4
:10B5100058B1BDF804200749074BC91AC9080123CF
:10B5200043EA0140224904F06BFF304604B0BDE815
:10B53000F0810000E0A80300E0A8030055706461FA
:10B5400074696E672064617461206C656E677468ED
:10B5500020746F202575206F6E20636F6E6E65639B
:10B5600074696F6E20307825782E0000608D03009E
:10B5700054686520726571756573746564205458EC
:10B580002F5258207061636B6574206C656E677410
:10B590006820697320746F6F206C6F6E672062790A
:10B5A0002025752F2575206F63746574732E000038
:10B5B000AC8D03002DE9F04105460F460F4C0121EB
:10B5C000204603F056FB064600BF00BF00BF00BF89
:10B5D000BFF35F8F00BF00BF00BF0EB9012000E0C6
:10B5E000002040B1284602F03BFE08B1BDE8F081E2
:10B5F000024805F01FF900BFF8E700009C2C00206E
:10B6000070B51149114A891AC908032242EA01405A
:10B610000FA104F0EBFE124800884FF6FF7188423C
:10B6200002D101200F49087009F0F2FB044600BF67
:10B6300025463DB100BF0CA240F25F212846FBF732
:10B64000E9FD00BF00BF70BD90A90300E0A80300A2
:10B65000457261736520626F6E64732100000000A3
:10B66000482C0020502C00202E2E5C2E2E5C2E2EDE
:10B670005C6D61696E2E630070B506460D4616B1AD
:10B680004FF4064070BD287920B1012809D0022866
:10B6900015D111E002202871284609F0A1FF0446C7
:10B6A00010E0284600F03EFF044648F2096084425C
:10B6B00001D141F61D5405E041F61D5402E048F267
:10B6C0000E6400BF00BF2046DCE700002DE9F0411A
:10B6D0008046002414E01248006800EBC405287876
:10B6E00005F096FE07466878012800D100E00020AA
:10B6F000784080F001062878314600F0B3FB641CE6
:10B70000084800788442E6DB0748D0E900100023AF
:10B7100059405840014301D00BF0EAFEBDE8F081EA
:10B72000C82D0020CC2D0020D82D002070B5044657
:10B730000E461321204676DF054665B10C490D4AB9
:10B74000891AC908022242EA01402B4622460A49C8
:10B7500004F062FE0AE00649064A891AC908042272
:10B7600042EA0140224605A104F04AFE70BD0000F5
:10B7700090A90300E0A80300808C03004469736370
:10B780006F6E6E656374656420636F6E6E6563745F
:10B79000696F6E2068616E646C652025640000002E
:10B7A00070B5044620793D2802D141F23D0001E008
:10B7B0004FF48850054620880022294602F0A0FC5C
:10B7C00070BD000010B50021034803F052FA044692
:10B7D00084F3100010BD00007C43002070B50546C6
:10B7E0000C464FF4803000FA04F1284600F01AFBB2
:10B7F00070BD70B505460C464FF4A07000EB840098
:10B8000086B23146284600F0A5FB70BD2DE9F04711
:10B8100004460D4616461F464FF4803000FA05F8E0
:10B820004FF4A07000EB85001FFA80F926F07F46E8
:10B830004146206805F0D8F84146206805F0CEF86A
:10B840004946206805F0C3F832462946206805F0CD
:10B85000B5F84146206805F0C4F81FB1414620689C
:10B8600005F0C5F8BDE8F08710B50446206805F07E
:10B87000AAF810BD2DE9F04704460D461746607939
:10B88000324941F820706079314901EBC0000079FC
:10B8900068B108262F49304A891AC908022242EAAB
:10B8A00001402EA104F0A2FD3046BDE8F0872988B2
:10B8B0002068C0F8081500BF94F90420AB78104642
:10B8C0001946002808DB4FEA417C4FEA1C68DFF884
:10B8D000B0C00CF800800BE04FEA417C4FEA1C69D5
:10B8E000DFF8A0C000F00F08A8F104080CF80890D9
:10B8F00000BF00BF94F90410084600280DDB00BF0C
:10B9000000BF00F01F0301229A4043099B0003F18E
:10B91000E023C3F8002100BF00BF00BF00BF01202B
:10B9200061790B4A02EBC10108716079114641F857
:10B93000304000260749084A891AC908032242EA0A
:10B94000014011A104F052FD3046AEE7202E002048
:10B95000242E002070A90300E0A8030052544320C5
:10B96000696E7374616E636520616C726561647980
:10B9700020696E697469616C697A65642E000000E3
:10B9800000E400E018ED00E05254433A20696E698B
:10B990007469616C697A65642E00000010B5014617
:10B9A00091F90400002807DB00F01F0301229A40F0
:10B9B000024B440943F8242000BF10BD00E200E020
:10B9C00070B505460C4622460221284600F036FA9C
:10B9D00070BD10B504464FF48271204600F0BAFAEB
:10B9E00010BD10B504460021206805F003F810BD15
:10B9F00010B504460421206804F0FCFF10BD2DE9B9
:10BA0000F84F04468846154699464FF4803000FAB0
:10BA100008FA4FF4A07000EB88001FFA80FB25F0B5
:10BA20007F455146204600F0FDF9206804F0CBFF29
:10BA300006464146206804F0BBFF0090324641466E
:10BA4000206804F0BBFF5946206804F0C0FF31466F
:10BA500000980BF0A7FC012806D1102005F0EAFBA6
:10BA60005946206804F0B3FF206804F0ACFF064696
:10BA7000314628460BF096FC07465146206804F0F4
:10BA8000B0FF012F0FD16A1C4146206804F096FFD9
:10BA9000102005F0CFFB206804F095FFB04225D0C0
:10BAA0000D20BDE8F88F2A464146206804F086FF45
:10BAB000206804F088FF0646681E31460BF072FCD1
:10BAC00007466FF07F40A0EB0900B84201D20D207D
:10BAD000E7E75FB96A1C4146206804F06FFF206801
:10BAE00004F071FFB04201D00D20DAE70122514687
:10BAF000204600F0A3F90020D3E7000010B504466B
:10BB00000549064A891AC908042242EA0140224628
:10BB100003A104F075FC10BD90A90300E0A8030088
:10BB200044756D6D79206576656E742068616E640C
:10BB30006C657220726563656976656420657665FB
:10BB40006E7420307825780070B506460C46154690
:10BB50002B46224600213046FFF714FC70BD000042
:10BB600070B51B491B4A891AC908032242EA0140E1
:10BB700019A104F03BFC22480068407E20B1062158
:10BB80000120FDF753FF70BD09F0FAFE044600BF27
:10BB9000204600B1F7E700BF1A4D1B4800F108012D
:10BBA000026828469047044624B9012014490968D0
:10BBB00048760BE00F2C09D10549064A891AC908B5
:10BBC000012242EA0140114904F010FC2046DAE764
:10BBD00090A90300E0A8030057726974696E67209A
:10BBE00070656572206461746120746F207468658B
:10BBF00020626F6F746C6F616465722E2E2E000070
:10BC0000D42E002030460020244600208CA60300BD
:10BC10002DE9F84305460E461746984669461048F2
:10BC2000006802F02EFF044614B90420BDE8F88332
:10BC30001C212046FBF741FC012020712560C4F83F
:10BC4000088008480068B6FBF0F0E060676169466C
:10BC50000348006802F03FFF09F0D2FB0020E5E74F
:10BC6000AC8A0300A08A030010B50446D4E903217E
:10BC7000501828DF10BD0278072A38D2DFE802F01A
:10BC800037040712222B340000220A7030E0012210
:10BC90000A7003898B818388CB81C2688A60002304
:10BCA0000B7425E002220A7003898B818388CB8183
:10BCB000C2688A60827D062A01D1012300E0002348
:10BCC0000B7415E003220A70C3888B810389CB8132
:10BCD000C2688A600CE004220A70C3888B8100234A
:10BCE000CB8100228A6003E005220A7000E000BFD9
:10BCF00000BF704770B50546002409E0064850F8BB
:10BD0000240020B1044850F8241028468847641CB9
:10BD1000042CF3D370BD0000283C002030B587B060
:10BD200004460D462068806808B907B030BD182168
:10BD300001A8FBF7C2FB0295A0680690207910B11C
:10BD4000012815D109E001208DF804002069039035
:10BD5000E0680490606905900BE002208DF8040013
:10BD60000749E0680968484303906069059000E06E
:10BD700000BF00BF2068816801A8884700BFD4E7E2
:10BD8000A08A0300F0B585B005460C461646002C87
:10BD90003ED0112C3CD0082C3AD00D2C24D11D497A
:10BDA0001D4A891AC908022242EA01402A461B4953
:10BDB00004F026FB2A460321684602F021FD2EB13D
:10BDC000307800F0010008B1012000E002208DF879
:10BDD000080000218DF80C1041F20111ADF80A1095
:10BDE000684600F025F913E0204605F06BF9074698
:10BDF0000849094A891AC908012242EA01402B462A
:10BE00003A46074904F008FB214628460AF018FB89
:10BE100005B0F0BD28A90300E0A803009C9E030024
:10BE2000AC9F030070B504460D462946206804F017
:10BE3000D5FD2946206804F0D7FD70BD70B50446D5
:10BE40000E4615463146206804F0CBFD1DB1314643
:10BE5000206804F0CCFD70BD10B50446204600F00B
:10BE6000E7F810BDF8B505460C4628460BF086F9F4
:10BE700005286AD2DFE800F003212A393F00DCB14F
:10BE8000012128460BF08AF9002000906846FCF753
:10BE900049FD2A460126002730463946FBF7E1FADC
:10BEA0002B4AD2E9003218431143294A03C29DF8B4
:10BEB0000000FCF73DFD00BF47E00CB1022000E0B0
:10BEC0000020014628460BF069F93EE044B1032109
:10BED00028460BF063F9012128460BF05FFF03E0D1
:10BEE000012128460BF05AF92FE01CB904212846FD
:10BEF0000BF054F929E024B1032128460BF04EF948
:10BF000022E0002128460BF049F9002128460BF0D9
:10BF100045FF002000906846FCF704FD2A460126F4
:10BF2000002730463946FBF79CFA0A46C143D04306
:10BF3000074B0CCB11401840054AC2E900109DF890
:10BF40000000FCF7F5FC00BF00BF00BFF8BD00001B
:10BF5000D82D002070B505460C462868015929B136
:10BF60002146286804F033FD012070BD0020FCE765
:10BF700070B50546002405E0044850F82410284612
:10BF80008847641C022CF7D370BD00000C860300A8
:10BF900070B50446A08801F0D1FA6080002505E064
:10BFA000044850F82510204688476D1C002DF7D016
:10BFB00070BD0000882C002070B50446608801F038
:10BFC00009FCA080002505E0044850F82510204613
:10BFD00088476D1C002DF7D070BD0000942C002008
:10BFE00070B50546002405E0054850F824102846A1
:10BFF0008847641C034800788442F5DB70BD00006C
:10C000000C3A0020CA2C002070B50446608801F06C
:10C01000E1FBA080002505E0044850F825102046EB
:10C0200088476D1C002DF7D070BD000020870300ED
:10C0300070B50546002405E0044850F82410284651
:10C040008847641C002CF7D070BD0000AC8703004B
:10C0500010B586B00446142101A8FBF72EFAA0897A
:10C0600000F07AFAADF80800207806285ED2DFE802
:10C0700000F05D0304052E4A00BF00BFA08900F058
:10C0800070FA18B9E08909F0CCFBF8B1E08909F041
:10C09000C5FB8DF80C002078032801D1012100E0B8
:10C0A00000218DF80D10A1680491606830B9082056
:10C0B0008DF8040001218DF8141004E009208DF89A
:10C0C00004006168059101A806F08AFF2FE0A089AD
:10C0D00000F047FAB0B1E089A0B9606838B90A2029
:10C0E0008DF80400BDF8080007F0D0F904E00B203B
:10C0F0008DF804006068039001201149087001A8C0
:10C1000006F06EFF13E0606818B913208DF8040084
:10C1100004E014208DF80400606803904FF6FF706F
:10C12000ADF8080001A806F05BFF00E000BF00BF0B
:10C130000348007808B107F0EFF806B010BD000022
:10C14000A92C002038B505461048007810B948F2EF
:10C15000016038BD4FF6FF70854202D148F203609E
:10C16000F7E7684609F02CF8044614B948F207606E
:10C17000EFE70520207001202071E580684609F076
:10C180002FF809F031F90020E3E70000382E0020F5
:10C1900038B50E48007810B948F2016038BD6846DD
:10C1A00009F00EF8044614B948F20760F6E70620D5
:10C1B0002070684609F014F80548007810B1012095
:10C1C0000349087309F010F90020E7E7382E002032
:10C1D000FC3C002070B586B0142101A8FBF76DF976
:10C1E0002E48007828B101A8FFF784FD002006B092
:10C1F00070BD2A48001D02F0FEFC08B10020F6E7E1
:10C2000000F074FA06460EB13046F0E709F014F873
:10C2100006F01AFC054625B1022D03D0062D0ED1DD
:10C2200003E000BF48F20A60E1E701201B49087003
:10C230000020486001A8FFF75DFD0020D7E700BFA0
:10C2400000BF684608F0BCFF044614B948F2076016
:10C25000CDE7012020700C2D16D2DFE805F0150681
:10C26000150715111512150A0E0B00BF00202071BD
:10C270000BE000BF0320207107E00220207104E0E2
:10C2800000BF0120207100E000BF00BF684608F039
:10C29000A7FF09F0A9F80020A9E70000382E002028
:10C2A00038B5044614B948F2046038BD69462046E2
:10C2B00009F0B4F908B3BDF8000000EB80001149A3
:10C2C00001EB8000C068A8B1A07A98B1BDF8000069
:10C2D00000EB800001EB8000C068401EBDF800103C
:10C2E00001EB8101074A02EB8101C8600020A072C6
:10C2F000002504E048F2056501E048F2096528469A
:10C30000D3E70000D43C00207FB514461D462B46E1
:10C31000224601A9684609F019F904B070BD37B585
:10C320000C4615462B4622466946002009F00EF9B8
:10C330003EBD37B50C4615462B46224600216846C1
:10C3400009F004F93EBD024602B111B948F2046099
:10C350007047106808600020FAE70000F8B504464E
:10C360000D4604B115B948F20460F8BD694620468F
:10C3700009F054F9A0B16668BDF8001001EB810125
:10C38000094A02EB810101F10C00012102F03AFCA3
:10C390002E6060680C3068600120A0720020E4E725
:10C3A00048F20960E1E70000D43C002070B5044683
:10C3B0000D4614B948F2046070BD032300222946DB
:10C3C00020460BF08FFFF7E770B504460D460223B9
:10C3D0000022294620460BF085FF70BD70B505464A
:10C3E00009480068042802D148F20B6409E00748B4
:10C3F0000549096840F821500121034802F002FC78
:10C400000024204670BD0000442E0020283C00205F
:10C410002DE9F84304464FF4806800262B48007845
:10C4200018B948F20160BDE8F88314B948F2046015
:10C43000F9E712212046FBF740F803202080002571
:10C440003FE005EB8500224901EB8000008905EB08
:10C4500085011F4A02EB81014989084487B205EB37
:10C46000850102EB8101486806F06AFA032802D1CF
:10C470002088401E2080608805EB8501144A02EB6D
:10C480008101C96808446080208905EB850102EBC1
:10C490008101498908442081608938446081C7F559
:10C4A000806086B2A089B04200DAA68104F1100053
:10C4B000831EA21D211D0090284609F005FA681C64
:10C4C00085B2022DBDDB0020ADE70000382E002034
:10C4D000D43C002070B504460D462A460021204673
:10C4E00000F00EF8A068401CA06070BD01468A688C
:10C4F000C868801A704701468A68C868801A704701
:10C5000010B583680B44848823400468E35C13708F
:10C5100010BDC26883881A4003689954C268521CCF
:10C52000C26070473EB504460A4B6A460021A01D12
:10C5300009F00CF8054635B9064A9188019809F0CA
:10C54000E7F8054603E00348002101604160284602
:10C550003EBD0000542E00200146A1F5404080B2AF
:10C5600070470146B1F5404F05DB4FF6FE70814242
:10C5700001DC012070470020FCE710B5044620785C
:10C58000182802D1FCF780FF207010BD10B50446BA
:10C590002078182802D1FCF777FF207010BD70B505
:10C5A00005460E46144624B13146284602F006FBE5
:10C5B00003E03146284602F09CFA70BD30B50446CF
:10C5C0001088C01C984201D90C2030BD022015886B
:10C5D00048551088401C1080012015884855108847
:10C5E000401C108015884C551088401C108000207D
:10C5F000EBE770B504460D4640F21442115B012290
:10C60000D4F81004FCF764FC064606B1357004F15A
:10C610003C0204F5826104F1540072DF70BD70B514
:10C6200004460D4640F21442115B0122D4F8100476
:10C63000FCF74EFC064606B1357004F13C0204F5E9
:10C64000826104F1540072DF70BD00002DE9F041F9
:10C6500006460C4615460027112C01D1012700E0A3
:10C66000002765B13A460A4801783046FCF730FFAA
:10C670000022084801783046FCF72AFF05E03A46D8
:10C68000044801783046FCF723FFBDE8F081000044
:10C690009F2D00209C2D002010B54FF4405400F039
:10C6A00009F80349086108460069001BC86010BD0D
:10C6B000DC2E002010B540F6F8700068401C18B958
:10C6C0004FF01020406902E040F6F8700068034621
:10C6D0004FF0805001694269581C08B1184601E0CA
:10C6E00002FB01F00446204610BD000010B5FFF724
:10C6F000D3FF00220249034803F002F810BD0000F6
:10C70000B08A0300DC2E0020F7B50D4617460DB9A0
:10C710000020FEBD0026009868B1002409E02146F3
:10C72000684602F03CFA18B1A0B23946A847761C18
:10C73000641C142CF3D33046EBE710B50446606854
:10C7400008F0A8FD10BD00003EB500BF9DF8000038
:10C7500020F00F00401C00909DF8000020F0F00039
:10C760001030009000BF102216A168467CDF0446FE
:10C7700000BF254635B100BF17A2C7212846FAF7EA
:10C7800049FD00BF00BF0020019002901020ADF8CD
:10C7900004003C20ADF806000020ADF808004FF47E
:10C7A000C870ADF80A0001A87ADF044600BF25462C
:10C7B00035B100BF08A2D1212846FAF72BFD00BFF2
:10C7C00000BF3EBD4E55535F4144445F5041495206
:10C7D0005F6E6577000000002E2E5C2E2E5C2E2EE4
:10C7E0005C6D61696E2E630070B505460C4660880D
:10C7F00013490988884215D1208840F6772188425C
:10C8000010D1A088C01E0F4908800F490F4A891A0D
:10C81000C908032242EA01400A490B880A880CA190
:10C8200003F0FAFD2B886A880749084E891BC9085E
:10C83000042646EA01400DA103F0EEFD70BD0000A4
:10C84000482C00204A2C002090A90300E0A80300F7
:10C8500044617461206C656E206973207365742077
:10C86000746F2030782558282564290041545420BD
:10C870004D54552065786368616E676520636F6D00
:10C88000706C657465642E2063656E7472616C20D3
:10C8900030782578207065726970686572616C20E7
:10C8A000307825780000000070B51149114802F079
:10C8B00088FA044600BF25463DB100BF0EA24FF4E2
:10C8C00070712846FAF7A6FC00BF00BFF72109489F
:10C8D00002F068FA044600BF25463DB100BF06A23B
:10C8E00040F2C3312846FAF795FC00BF00BF70BD87
:10C8F000E9C70200F02E00202E2E5C2E2E5C2E2E7C
:10C900005C6D61696E2E630070B5054615B14FF41C
:10C91000064070BD1848007B18B100201649087306
:10C9200001E000F0DFF81448007808281DD2DFE8A5
:10C9300000F01C04080C101C141800F03FF804460A
:10C9400016E000F0BDF8044612E000F099F8044645
:10C950000EE000F047F804460AE000F035F904461E
:10C9600006E000F043F9044602E048F20E6400BF1E
:10C9700000BF2046CDE70000FC3C00200D480089A8
:10C98000401C0C49088100204880087300BF0DE05E
:10C9900000EB8001084A12F8211009B9012200E0D9
:10C9A000002204490A310A54411C88B20228EFDBF4
:10C9B00070470000FC3C0020D43C002010B5084823
:10C9C00000F036F840B900200549891E08704880FB
:10C9D000486041F61D5010BD00F072F8FBE7000002
:10C9E000FE3C002070B50F48458805EB85000E49D8
:10C9F00001EB8000C06878B904200A49087005EB93
:10CA00008500094A02EB80000023012241680748A3
:10CA100002F0BEFD044602E000F090F80446204615
:10CA200070BD0000FC3C0020D43C0020DC2E002027
:10CA300010B501460022002018E00F4B1B5C9BB193
:10CA400000240D4B1C5400EB80030C4C04EB8303BF
:10CA5000DB684BB900EB800304EB83031B7C012BE9
:10CA600002D10880012203E0431C98B20228E4DBD3
:10CA700000BF104610BD0000063D0020D43C002041
:10CA8000F8B50C4844680C4800680B49898800EBED
:10CA900081056088C01C86B203200649087000200A
:10CAA000B3000090084629464268044802F0E8FEB8
:10CAB000F8BD0000FC3C00204C2E0020DC2E0020A5
:10CAC00010B507494888091D08F0E6FD18B1FFF7C1
:10CAD000D7FF044602E0FFF785FF0446204610BD5D
